{
  "contractName": "Voting",
  "abi": [
    {
      "inputs": [],
      "stateMutability": "nonpayable",
      "type": "constructor"
    },
    {
      "inputs": [
        {
          "internalType": "uint256",
          "name": "",
          "type": "uint256"
        }
      ],
      "name": "candidates",
      "outputs": [
        {
          "internalType": "uint256",
          "name": "id",
          "type": "uint256"
        },
        {
          "internalType": "string",
          "name": "name",
          "type": "string"
        },
        {
          "internalType": "uint256",
          "name": "voteCount",
          "type": "uint256"
        }
      ],
      "stateMutability": "view",
      "type": "function"
    },
    {
      "inputs": [],
      "name": "candidatesCount",
      "outputs": [
        {
          "internalType": "uint256",
          "name": "",
          "type": "uint256"
        }
      ],
      "stateMutability": "view",
      "type": "function"
    },
    {
      "inputs": [],
      "name": "owner",
      "outputs": [
        {
          "internalType": "address",
          "name": "",
          "type": "address"
        }
      ],
      "stateMutability": "view",
      "type": "function"
    },
    {
      "inputs": [
        {
          "internalType": "address",
          "name": "",
          "type": "address"
        }
      ],
      "name": "voters",
      "outputs": [
        {
          "internalType": "bool",
          "name": "voted",
          "type": "bool"
        },
        {
          "internalType": "uint256",
          "name": "vote",
          "type": "uint256"
        }
      ],
      "stateMutability": "view",
      "type": "function"
    },
    {
      "inputs": [
        {
          "internalType": "string",
          "name": "_name",
          "type": "string"
        }
      ],
      "name": "addCandidate",
      "outputs": [],
      "stateMutability": "nonpayable",
      "type": "function"
    },
    {
      "inputs": [
        {
          "internalType": "uint256",
          "name": "_candidateId",
          "type": "uint256"
        }
      ],
      "name": "vote",
      "outputs": [],
      "stateMutability": "nonpayable",
      "type": "function"
    },
    {
      "inputs": [
        {
          "internalType": "uint256",
          "name": "_candidateId",
          "type": "uint256"
        }
      ],
      "name": "getCandidate",
      "outputs": [
        {
          "internalType": "uint256",
          "name": "",
          "type": "uint256"
        },
        {
          "internalType": "string",
          "name": "",
          "type": "string"
        },
        {
          "internalType": "uint256",
          "name": "",
          "type": "uint256"
        }
      ],
      "stateMutability": "view",
      "type": "function"
    },
    {
      "inputs": [],
      "name": "getTotalCandidates",
      "outputs": [
        {
          "internalType": "uint256",
          "name": "",
          "type": "uint256"
        }
      ],
      "stateMutability": "view",
      "type": "function"
    }
  ],
  "bytecode": "0x608060405234801561001057600080fd5b50336000806101000a81548173ffffffffffffffffffffffffffffffffffffffff021916908373ffffffffffffffffffffffffffffffffffffffff160217905550610de0806100606000396000f3fe608060405234801561001057600080fd5b50600436106100885760003560e01c806335b8e8201161005b57806335b8e82014610117578063462e91ec146101495780638da5cb5b14610165578063a3ec138d1461018357610088565b80630121b93f1461008d5780630deb56ab146100a95780632d35a8a2146100c75780633477ee2e146100e5575b600080fd5b6100a760048036038101906100a291906108b0565b6101b4565b005b6100b1610368565b6040516100be9190610b03565b60405180910390f35b6100cf610372565b6040516100dc9190610b03565b60405180910390f35b6100ff60048036038101906100fa91906108b0565b610378565b60405161010e93929190610b1e565b60405180910390f35b610131600480360381019061012c91906108b0565b61042a565b60405161014093929190610b1e565b60405180910390f35b610163600480360381019061015e919061086f565b610568565b005b61016d6106bc565b60405161017a9190610a3f565b60405180910390f35b61019d60048036038101906101989190610846565b6106e0565b6040516101ab929190610a5a565b60405180910390f35b600260003373ffffffffffffffffffffffffffffffffffffffff1673ffffffffffffffffffffffffffffffffffffffff16815260200190815260200160002060000160009054906101000a900460ff1615610244576040517f08c379a000000000000000000000000000000000000000000000000000000000815260040161023b90610a83565b60405180910390fd5b8060008111801561025757506003548111155b610296576040517f08c379a000000000000000000000000000000000000000000000000000000000815260040161028d90610ae3565b60405180910390fd5b6001600260003373ffffffffffffffffffffffffffffffffffffffff1673ffffffffffffffffffffffffffffffffffffffff16815260200190815260200160002060000160006101000a81548160ff02191690831515021790555081600260003373ffffffffffffffffffffffffffffffffffffffff1673ffffffffffffffffffffffffffffffffffffffff1681526020019081526020016000206001018190555060016000838152602001908152602001600020600201600081548092919061035f90610c95565b91905055505050565b6000600354905090565b60035481565b60016020528060005260406000206000915090508060000154908060010180546103a190610c63565b80601f01602080910402602001604051908101604052809291908181526020018280546103cd90610c63565b801561041a5780601f106103ef5761010080835404028352916020019161041a565b820191906000526020600020905b8154815290600101906020018083116103fd57829003601f168201915b5050505050908060020154905083565b6000606060008360008111801561044357506003548111155b610482576040517f08c379a000000000000000000000000000000000000000000000000000000000815260040161047990610ae3565b60405180910390fd5b600060016000878152602001908152602001600020604051806060016040529081600082015481526020016001820180546104bc90610c63565b80601f01602080910402602001604051908101604052809291908181526020018280546104e890610c63565b80156105355780601f1061050a57610100808354040283529160200191610535565b820191906000526020600020905b81548152906001019060200180831161051857829003601f168201915b50505050508152602001600282015481525050905080600001518160200151826040015194509450945050509193909250565b60008054906101000a900473ffffffffffffffffffffffffffffffffffffffff1673ffffffffffffffffffffffffffffffffffffffff163373ffffffffffffffffffffffffffffffffffffffff16146105f6576040517f08c379a00000000000000000000000000000000000000000000000000000000081526004016105ed90610ac3565b60405180910390fd5b600081511161063a576040517f08c379a000000000000000000000000000000000000000000000000000000000815260040161063190610aa3565b60405180910390fd5b6003600081548092919061064d90610c95565b91905055506040518060600160405280600354815260200182815260200160008152506001600060035481526020019081526020016000206000820151816000015560208201518160010190805190602001906106ab929190610711565b506040820151816002015590505050565b60008054906101000a900473ffffffffffffffffffffffffffffffffffffffff1681565b60026020528060005260406000206000915090508060000160009054906101000a900460ff16908060010154905082565b82805461071d90610c63565b90600052602060002090601f01602090048101928261073f5760008555610786565b82601f1061075857805160ff1916838001178555610786565b82800160010185558215610786579182015b8281111561078557825182559160200191906001019061076a565b5b5090506107939190610797565b5090565b5b808211156107b0576000816000905550600101610798565b5090565b60006107c76107c284610b8d565b610b5c565b9050828152602081018484840111156107df57600080fd5b6107ea848285610c21565b509392505050565b60008135905061080181610d7c565b92915050565b600082601f83011261081857600080fd5b81356108288482602086016107b4565b91505092915050565b60008135905061084081610d93565b92915050565b60006020828403121561085857600080fd5b6000610866848285016107f2565b91505092915050565b60006020828403121561088157600080fd5b600082013567ffffffffffffffff81111561089b57600080fd5b6108a784828501610807565b91505092915050565b6000602082840312156108c257600080fd5b60006108d084828501610831565b91505092915050565b6108e281610bd9565b82525050565b6108f181610beb565b82525050565b600061090282610bbd565b61090c8185610bc8565b935061091c818560208601610c30565b61092581610d6b565b840191505092915050565b600061093d601783610bc8565b91507f596f75206861766520616c726561647920766f7465642e0000000000000000006000830152602082019050919050565b600061097d601f83610bc8565b91507f43616e646964617465206e616d652063616e6e6f7420626520656d7074792e006000830152602082019050919050565b60006109bd602083610bc8565b91507f4f6e6c7920746865206f776e65722063616e206578656375746520746869732e6000830152602082019050919050565b60006109fd601283610bc8565b91507f496e76616c69642063616e6469646174652e00000000000000000000000000006000830152602082019050919050565b610a3981610c17565b82525050565b6000602082019050610a5460008301846108d9565b92915050565b6000604082019050610a6f60008301856108e8565b610a7c6020830184610a30565b9392505050565b60006020820190508181036000830152610a9c81610930565b9050919050565b60006020820190508181036000830152610abc81610970565b9050919050565b60006020820190508181036000830152610adc816109b0565b9050919050565b60006020820190508181036000830152610afc816109f0565b9050919050565b6000602082019050610b186000830184610a30565b92915050565b6000606082019050610b336000830186610a30565b8181036020830152610b4581856108f7565b9050610b546040830184610a30565b949350505050565b6000604051905081810181811067ffffffffffffffff82111715610b8357610b82610d3c565b5b8060405250919050565b600067ffffffffffffffff821115610ba857610ba7610d3c565b5b601f19601f8301169050602081019050919050565b600081519050919050565b600082825260208201905092915050565b6000610be482610bf7565b9050919050565b60008115159050919050565b600073ffffffffffffffffffffffffffffffffffffffff82169050919050565b6000819050919050565b82818337600083830152505050565b60005b83811015610c4e578082015181840152602081019050610c33565b83811115610c5d576000848401525b50505050565b60006002820490506001821680610c7b57607f821691505b60208210811415610c8f57610c8e610d0d565b5b50919050565b6000610ca082610c17565b91507fffffffffffffffffffffffffffffffffffffffffffffffffffffffffffffffff821415610cd357610cd2610cde565b5b600182019050919050565b7f4e487b7100000000000000000000000000000000000000000000000000000000600052601160045260246000fd5b7f4e487b7100000000000000000000000000000000000000000000000000000000600052602260045260246000fd5b7f4e487b7100000000000000000000000000000000000000000000000000000000600052604160045260246000fd5b6000601f19601f8301169050919050565b610d8581610bd9565b8114610d9057600080fd5b50565b610d9c81610c17565b8114610da757600080fd5b5056fea2646970667358221220a3a9ffdf50b2f52f35b229ee4bce9e255bc24e65e08ca0d0423e5765c55db2dd64736f6c63430008000033",
  "immutableReferences": {},
  "source": "// SPDX-License-Identifier: MIT\r\npragma solidity ^0.8.0;\r\n\r\ncontract Voting {\r\n    struct Candidate {\r\n        uint id;\r\n        string name;\r\n        uint voteCount;\r\n    }\r\n\r\n    struct Voter {\r\n        bool voted;\r\n        uint vote;\r\n    }\r\n\r\n    address public owner;\r\n    mapping(uint => Candidate) public candidates;\r\n    mapping(address => Voter) public voters;\r\n    uint public candidatesCount;\r\n\r\n    modifier onlyOwner() {\r\n        require(msg.sender == owner, \"Only the owner can execute this.\");\r\n        _;\r\n    }\r\n\r\n    modifier hasNotVoted() {\r\n        require(!voters[msg.sender].voted, \"You have already voted.\");\r\n        _;\r\n    }\r\n\r\n    modifier validCandidate(uint _candidateId) {\r\n        require(_candidateId > 0 && _candidateId <= candidatesCount, \"Invalid candidate.\");\r\n        _;\r\n    }\r\n\r\n    constructor() {\r\n        owner = msg.sender;\r\n    }\r\n\r\n    function addCandidate(string memory _name) public onlyOwner {\r\n        require(bytes(_name).length > 0, \"Candidate name cannot be empty.\"); // Ensure name is not empty\r\n        candidatesCount++;\r\n        candidates[candidatesCount] = Candidate(candidatesCount, _name, 0);\r\n    }\r\n\r\n    function vote(uint _candidateId) public hasNotVoted validCandidate(_candidateId) {\r\n        voters[msg.sender].voted = true;\r\n        voters[msg.sender].vote = _candidateId;\r\n        candidates[_candidateId].voteCount++;\r\n    }\r\n\r\n    function getCandidate(uint _candidateId) public view validCandidate(_candidateId) returns (uint, string memory, uint) {\r\n        Candidate memory candidate = candidates[_candidateId];\r\n        return (candidate.id, candidate.name, candidate.voteCount);\r\n    }\r\n\r\n    function getTotalCandidates() public view returns (uint) {\r\n        return candidatesCount;\r\n    }\r\n}\r\n\r\n",
  "sourcePath": "D:\\voting-dapp\\contracts\\Voting.sol",
  "compiler": {
    "name": "solc",
    "version": "0.8.0+commit.c7dfd78e.Emscripten.clang"
  },
  "schemaVersion": "3.4.16",
  "updatedAt": "2024-10-08T05:48:59.488Z",
  "devdoc": {
    "kind": "dev",
    "methods": {},
    "version": 1
  },
  "userdoc": {
    "kind": "user",
    "methods": {},
    "version": 1
  }
}