{
  "contractName": "Voting",
  "abi": [
    {
      "inputs": [],
      "stateMutability": "nonpayable",
      "type": "constructor"
    },
    {
      "inputs": [
        {
          "internalType": "uint256",
          "name": "",
          "type": "uint256"
        }
      ],
      "name": "candidates",
      "outputs": [
        {
          "internalType": "uint256",
          "name": "id",
          "type": "uint256"
        },
        {
          "internalType": "string",
          "name": "name",
          "type": "string"
        },
        {
          "internalType": "uint256",
          "name": "voteCount",
          "type": "uint256"
        }
      ],
      "stateMutability": "view",
      "type": "function",
      "constant": true
    },
    {
      "inputs": [],
      "name": "candidatesCount",
      "outputs": [
        {
          "internalType": "uint256",
          "name": "",
          "type": "uint256"
        }
      ],
      "stateMutability": "view",
      "type": "function",
      "constant": true
    },
    {
      "inputs": [],
      "name": "owner",
      "outputs": [
        {
          "internalType": "address",
          "name": "",
          "type": "address"
        }
      ],
      "stateMutability": "view",
      "type": "function",
      "constant": true
    },
    {
      "inputs": [
        {
          "internalType": "address",
          "name": "",
          "type": "address"
        }
      ],
      "name": "voters",
      "outputs": [
        {
          "internalType": "bool",
          "name": "voted",
          "type": "bool"
        },
        {
          "internalType": "uint256",
          "name": "vote",
          "type": "uint256"
        }
      ],
      "stateMutability": "view",
      "type": "function",
      "constant": true
    },
    {
      "inputs": [
        {
          "internalType": "string",
          "name": "_name",
          "type": "string"
        }
      ],
      "name": "addCandidate",
      "outputs": [],
      "stateMutability": "nonpayable",
      "type": "function"
    },
    {
      "inputs": [
        {
          "internalType": "uint256",
          "name": "_candidateId",
          "type": "uint256"
        }
      ],
      "name": "vote",
      "outputs": [],
      "stateMutability": "nonpayable",
      "type": "function"
    }
  ],
  "bytecode": "0x608060405234801561001057600080fd5b50336000806101000a81548173ffffffffffffffffffffffffffffffffffffffff021916908373ffffffffffffffffffffffffffffffffffffffff160217905550610b7c806100606000396000f3fe608060405234801561001057600080fd5b50600436106100625760003560e01c80630121b93f146100675780632d35a8a2146100835780633477ee2e146100a1578063462e91ec146100d35780638da5cb5b146100ef578063a3ec138d1461010d575b600080fd5b610081600480360381019061007c91906106ac565b61013e565b005b61008b6102f0565b604051610098919061089f565b60405180910390f35b6100bb60048036038101906100b691906106ac565b6102f6565b6040516100ca939291906108ba565b60405180910390f35b6100ed60048036038101906100e8919061066b565b6103a8565b005b6100f76104b8565b60405161010491906107fb565b60405180910390f35b61012760048036038101906101229190610642565b6104dc565b604051610135929190610816565b60405180910390f35b600260003373ffffffffffffffffffffffffffffffffffffffff1673ffffffffffffffffffffffffffffffffffffffff16815260200190815260200160002060000160009054906101000a900460ff16156101ce576040517f08c379a00000000000000000000000000000000000000000000000000000000081526004016101c59061083f565b60405180910390fd5b6000811180156101e057506003548111155b61021f576040517f08c379a00000000000000000000000000000000000000000000000000000000081526004016102169061085f565b60405180910390fd5b6001600260003373ffffffffffffffffffffffffffffffffffffffff1673ffffffffffffffffffffffffffffffffffffffff16815260200190815260200160002060000160006101000a81548160ff02191690831515021790555080600260003373ffffffffffffffffffffffffffffffffffffffff1673ffffffffffffffffffffffffffffffffffffffff168152602001908152602001600020600101819055506001600082815260200190815260200160002060020160008154809291906102e890610a31565b919050555050565b60035481565b600160205280600052604060002060009150905080600001549080600101805461031f906109ff565b80601f016020809104026020016040519081016040528092919081815260200182805461034b906109ff565b80156103985780601f1061036d57610100808354040283529160200191610398565b820191906000526020600020905b81548152906001019060200180831161037b57829003601f168201915b5050505050908060020154905083565b60008054906101000a900473ffffffffffffffffffffffffffffffffffffffff1673ffffffffffffffffffffffffffffffffffffffff163373ffffffffffffffffffffffffffffffffffffffff1614610436576040517f08c379a000000000000000000000000000000000000000000000000000000000815260040161042d9061087f565b60405180910390fd5b6003600081548092919061044990610a31565b91905055506040518060600160405280600354815260200182815260200160008152506001600060035481526020019081526020016000206000820151816000015560208201518160010190805190602001906104a792919061050d565b506040820151816002015590505050565b60008054906101000a900473ffffffffffffffffffffffffffffffffffffffff1681565b60026020528060005260406000206000915090508060000160009054906101000a900460ff16908060010154905082565b828054610519906109ff565b90600052602060002090601f01602090048101928261053b5760008555610582565b82601f1061055457805160ff1916838001178555610582565b82800160010185558215610582579182015b82811115610581578251825591602001919060010190610566565b5b50905061058f9190610593565b5090565b5b808211156105ac576000816000905550600101610594565b5090565b60006105c36105be84610929565b6108f8565b9050828152602081018484840111156105db57600080fd5b6105e68482856109bd565b509392505050565b6000813590506105fd81610b18565b92915050565b600082601f83011261061457600080fd5b81356106248482602086016105b0565b91505092915050565b60008135905061063c81610b2f565b92915050565b60006020828403121561065457600080fd5b6000610662848285016105ee565b91505092915050565b60006020828403121561067d57600080fd5b600082013567ffffffffffffffff81111561069757600080fd5b6106a384828501610603565b91505092915050565b6000602082840312156106be57600080fd5b60006106cc8482850161062d565b91505092915050565b6106de81610975565b82525050565b6106ed81610987565b82525050565b60006106fe82610959565b6107088185610964565b93506107188185602086016109cc565b61072181610b07565b840191505092915050565b6000610739601783610964565b91507f596f75206861766520616c726561647920766f7465642e0000000000000000006000830152602082019050919050565b6000610779601283610964565b91507f496e76616c69642063616e6469646174652e00000000000000000000000000006000830152602082019050919050565b60006107b9601c83610964565b91507f4f6e6c79206f776e65722063616e206578656375746520746869732e000000006000830152602082019050919050565b6107f5816109b3565b82525050565b600060208201905061081060008301846106d5565b92915050565b600060408201905061082b60008301856106e4565b61083860208301846107ec565b9392505050565b600060208201905081810360008301526108588161072c565b9050919050565b600060208201905081810360008301526108788161076c565b9050919050565b60006020820190508181036000830152610898816107ac565b9050919050565b60006020820190506108b460008301846107ec565b92915050565b60006060820190506108cf60008301866107ec565b81810360208301526108e181856106f3565b90506108f060408301846107ec565b949350505050565b6000604051905081810181811067ffffffffffffffff8211171561091f5761091e610ad8565b5b8060405250919050565b600067ffffffffffffffff82111561094457610943610ad8565b5b601f19601f8301169050602081019050919050565b600081519050919050565b600082825260208201905092915050565b600061098082610993565b9050919050565b60008115159050919050565b600073ffffffffffffffffffffffffffffffffffffffff82169050919050565b6000819050919050565b82818337600083830152505050565b60005b838110156109ea5780820151818401526020810190506109cf565b838111156109f9576000848401525b50505050565b60006002820490506001821680610a1757607f821691505b60208210811415610a2b57610a2a610aa9565b5b50919050565b6000610a3c826109b3565b91507fffffffffffffffffffffffffffffffffffffffffffffffffffffffffffffffff821415610a6f57610a6e610a7a565b5b600182019050919050565b7f4e487b7100000000000000000000000000000000000000000000000000000000600052601160045260246000fd5b7f4e487b7100000000000000000000000000000000000000000000000000000000600052602260045260246000fd5b7f4e487b7100000000000000000000000000000000000000000000000000000000600052604160045260246000fd5b6000601f19601f8301169050919050565b610b2181610975565b8114610b2c57600080fd5b50565b610b38816109b3565b8114610b4357600080fd5b5056fea2646970667358221220bfa2b56b58a1f9774fc99a7a8004f127e707e49f4e6a238d7a686f142dc9c36164736f6c63430008000033",
  "immutableReferences": {},
  "source": "// SPDX-License-Identifier: MIT\r\npragma solidity ^0.8.0;\r\n\r\ncontract Voting {\r\n    struct Candidate {\r\n        uint id;\r\n        string name;\r\n        uint voteCount;\r\n    }\r\n\r\n    struct Voter {\r\n        bool voted;\r\n        uint vote;\r\n    }\r\n\r\n    address public owner;\r\n    mapping(uint => Candidate) public candidates;\r\n    mapping(address => Voter) public voters;\r\n    uint public candidatesCount;\r\n\r\n    modifier onlyOwner() {\r\n        require(msg.sender == owner, \"Only owner can execute this.\");\r\n        _;\r\n    }\r\n\r\n    constructor() {\r\n        owner = msg.sender;\r\n    }\r\n\r\n    function addCandidate(string memory _name) public onlyOwner {\r\n        candidatesCount++;\r\n        candidates[candidatesCount] = Candidate(candidatesCount, _name, 0);\r\n    }\r\n\r\n    function vote(uint _candidateId) public {\r\n        require(!voters[msg.sender].voted, \"You have already voted.\");\r\n        require(_candidateId > 0 && _candidateId <= candidatesCount, \"Invalid candidate.\");\r\n        voters[msg.sender].voted = true;\r\n        voters[msg.sender].vote = _candidateId;\r\n        candidates[_candidateId].voteCount++;\r\n    }\r\n}\r\n\r\n",
  "sourcePath": "C:\\Users\\admi\\voting-dapp\\contracts\\Voting.sol",
  "compiler": {
    "name": "solc",
    "version": "0.8.0+commit.c7dfd78e.Emscripten.clang"
  },
  "schemaVersion": "3.4.16",
  "updatedAt": "2024-10-07T11:21:55.776Z",
  "networkType": "ethereum",
  "devdoc": {
    "kind": "dev",
    "methods": {},
    "version": 1
  },
  "userdoc": {
    "kind": "user",
    "methods": {},
    "version": 1
  }
}